:100000000C9495000C94C2010C94E9010C94B2007C
:100010000C94B2000C94B2000C94B2000C94B20098
:100020000C94B2000C94B2000C94B2000C94B20088
:100030000C94B2000C9449010C94B2000C94B200E0
:100040000C9410020C94B2000C94B2000C94B20008
:100050000C94B2000C94B2000C94B2000C94B20058
:100060000C94B2000C94B2000C94B2000C94B20048
:100070000C94B2000C94B2000C94B2000C94B20038
:100080000C94B2000C94B2000C94B2000C94B20028
:100090000C94B2000C94B2000C94B2000C94B20018
:1000A0000C94B2000C94B2000C94B2000C94B20008
:1000B0000C94B2000A0D0E090003020000040508AA
:1000C000000000000000000000000000000000012F
:1000D00002040810204080010204081020010204DC
:1000E00008102040804001020408040404040404B1
:1000F00004040202020202020303030303030202D6
:100100000305050505000000002300260029002C3A
:100110000000000000250028002B002E0000000039
:1001200000240027002A002D000011241FBECFEF5D
:10013000D8E0DEBFCDBF11E0A0E0B1E0E4EEF7E033
:1001400002C005900D92A430B107D9F721E0A4E0D8
:10015000B1E001C01D92A431B207E1F70E94DA03B9
:100160000C94F0030C94000061E085E00E944603CB
:1001700061E085E00E94820361E086E00E94460320
:10018000F89462E082E00E94460341E050E062E0C1
:1001900071E080E00E94A2017894089580910A01A4
:1001A00061E0811101C060E086E00C9482038091DF
:1001B0006F008370F1F4F89481E080930A0110924B
:1001C00080001092810081E090E090938500809300
:1001D00084008091810085608093810080916F0010
:1001E000816080936F00B098109205011092040115
:1001F00078940895EFE6F0E080818E7F80831092FE
:100200000A0108950F931F936AE070E080E090E088
:100210000E948B020E945A02009106011091070170
:100220002091080130910901601B710B820B930B27
:10023000643171058105910548F10E945A0260936D
:10024000060170930701809308019093090182E0F1
:100250000E94B003892BD1F460E085E00E94820304
:1002600064EF71E080E090E00E948B0261E085E045
:100270000E94820380910A01811104C01F910F9195
:100280000C94D7001F910F910C94FA001F910F91BD
:1002900008951F920F920FB60F9211242F933F9340
:1002A0004F935F936F937F938F939F93AF93BF937E
:1002B000EF93FF9380910401909105010196909333
:1002C0000501809304010297B4F060E085E00E948C
:1002D000820364EF71E080E090E00E948B0261E0B5
:1002E00085E00E948203809104019091050140976E
:1002F0009CF00E94FA00FF91EF91BF91AF919F9106
:100300008F917F916F915F914F913F912F910F90BE
:100310000FBE0F901F90189568EE73E080E090E09C
:100320000E948B0260E085E00E94820364EF71E02E
:1003300080E090E00E948B0261E085E00E948203F1
:10034000DACF08958230E8F4E82FF0E0EE0FFF1FD7
:10035000E050FF4F71836083813041F080916900EC
:100360008C7F482B40936900E89A0895809169003A
:10037000837F440F551F440F551F482B409369003E
:10038000E99A08951F920F920FB60F9211242F939E
:100390003F934F935F936F937F938F939F93AF930D
:1003A000BF93EF93FF93E0910001F0910101099554
:1003B000FF91EF91BF91AF919F918F917F916F913D
:1003C0005F914F913F912F910F900FBE0F901F9013
:1003D00018951F920F920FB60F9211242F933F93EF
:1003E0004F935F936F937F938F939F93AF93BF933D
:1003F000EF93FF93E0910201F09103010995FF91C2
:10040000EF91BF91AF919F918F917F916F915F918C
:100410004F913F912F910F900FBE0F901F90189505
:100420001F920F920FB60F9211242F933F938F9329
:100430009F93AF93BF938091100190911101A09170
:100440001201B091130130910F0126E0230F2D37D7
:1004500068F129E8230F0396A11DB11D20930F0118
:100460008093100190931101A0931201B093130196
:1004700080910B0190910C01A0910D01B0910E01A2
:100480000196A11DB11D80930B0190930C01A093C7
:100490000D01B0930E01BF91AF919F918F913F914C
:1004A0002F910F900FBE0F901F9018950296A11DCF
:1004B000B11DD4CF2FB7F894609110017091110144
:1004C00080911201909113012FBF08953FB7F894C6
:1004D00080910B0190910C01A0910D01B0910E0142
:1004E00026B5A89B05C02F3F19F00196A11DB11D8F
:1004F0003FBFBA2FA92F982F8827BC01CD01620FCB
:10050000711D811D911D43E0660F771F881F991F84
:100510004A95D1F708958F929F92AF92BF92CF9252
:10052000DF92EF92FF926B017C010E9466024B0109
:100530005C01C114D104E104F104E9F00E94E90373
:100540000E946602681979098A099B09683E73400E
:100550008105910570F321E0C21AD108E108F10884
:1005600088EE880E83E0981EA11CB11CC114D10432
:10057000E104F10429F7FF90EF90DF90CF90BF9056
:10058000AF909F908F900895789484B5836084BDD8
:1005900085B5836085BDEEE6F0E080818160808373
:1005A000E1E8F0E082E08083808181608083E0E8A0
:1005B000F0E0808181608083E1EBF0E08081846005
:1005C0008083E0EBF0E0808181608083E1E9F0E00E
:1005D000808183608083E0E9F0E0808181608083B6
:1005E000E1EAF0E0808183608083E0EAF0E08081EE
:1005F0008160808386E880937A001092C10008951C
:1006000082508D3008F03EC0E82FF0E0E65FFC4FEE
:100610000C94EA033F03430317031D034203420301
:10062000210327032B033103420335033B0380914E
:1006300080008F77809380000895809180008F7D67
:10064000F9CF8091B0008F778093B00008958091AA
:10065000B0008F7DF9CF809190008F7780939000CC
:100660000895809190008F7DF9CF8091A0008F77C1
:100670008093A00008958091A0008F7DF9CF84B56C
:100680008F7784BD089584B58F7DFBCFCF93DF93A3
:1006900090E0FC01E153FF4F249186519F4FFC01F4
:1006A00084918823C9F090E0880F991FFC01E35ED4
:1006B000FE4FA591B491FC01EF5EFE4FC591D49120
:1006C00061110DC09FB7F8948C91209582238C9373
:1006D0008881282328839FBFDF91CF9108956230BE
:1006E00051F49FB7F8943C91822F809583238C938B
:1006F000E8812E2BEFCF8FB7F894EC912E2B2C9313
:100700008FBFEACF1F93CF93DF93282F30E0F901FB
:10071000EC54FF4F8491F901E153FF4FD491F9015B
:10072000E651FF4FC491CC23A9F0162F81110E94EE
:100730000003EC2FF0E0EE0FFF1FEF5EFE4FA591E0
:10074000B4918FB7F894EC91111108C0D095DE23C5
:10075000DC938FBFDF91CF911F910895DE2BF8CFEF
:10076000CF93DF93282F30E0F901EC54FF4F8491B1
:10077000F901E153FF4FD491F901E651FF4FC491C4
:10078000CC23A1F081110E940003EC2FF0E0EE0FCA
:10079000FF1FEB5FFE4FA591B491EC91ED2381E03B
:1007A00090E009F480E0DF91CF91089580E090E03F
:1007B000FACF08950E94C4020E94D9030E94B40097
:1007C000C0E0D0E00E94CE002097E1F30E9400003C
:1007D000F9CF0895EE0FFF1F0590F491E02D0994D5
:0407E000F894FFCFBB
:0407E400A10100006F
:00000001FF
